{
  "contractName": "LoyaltyPoints",
  "abi": [
    {
      "constant": true,
      "inputs": [
        {
          "name": "",
          "type": "address"
        }
      ],
      "name": "members",
      "outputs": [
        {
          "name": "memberAddress",
          "type": "address"
        },
        {
          "name": "points",
          "type": "uint256"
        },
        {
          "name": "isRegistered",
          "type": "bool"
        }
      ],
      "payable": false,
      "stateMutability": "view",
      "type": "function"
    },
    {
      "constant": true,
      "inputs": [
        {
          "name": "",
          "type": "uint256"
        }
      ],
      "name": "transactionsInfo",
      "outputs": [
        {
          "name": "points",
          "type": "uint256"
        },
        {
          "name": "transactionType",
          "type": "uint8"
        },
        {
          "name": "memberAddress",
          "type": "address"
        },
        {
          "name": "partnerAddress",
          "type": "address"
        }
      ],
      "payable": false,
      "stateMutability": "view",
      "type": "function"
    },
    {
      "constant": true,
      "inputs": [],
      "name": "owner",
      "outputs": [
        {
          "name": "",
          "type": "address"
        }
      ],
      "payable": false,
      "stateMutability": "view",
      "type": "function"
    },
    {
      "constant": true,
      "inputs": [
        {
          "name": "",
          "type": "address"
        }
      ],
      "name": "partners",
      "outputs": [
        {
          "name": "partnerAddress",
          "type": "address"
        },
        {
          "name": "isRegistered",
          "type": "bool"
        }
      ],
      "payable": false,
      "stateMutability": "view",
      "type": "function"
    },
    {
      "constant": true,
      "inputs": [
        {
          "name": "",
          "type": "uint256"
        }
      ],
      "name": "partnersInfo",
      "outputs": [
        {
          "name": "partnerAddress",
          "type": "address"
        },
        {
          "name": "isRegistered",
          "type": "bool"
        }
      ],
      "payable": false,
      "stateMutability": "view",
      "type": "function"
    },
    {
      "constant": false,
      "inputs": [
        {
          "name": "newOwner",
          "type": "address"
        }
      ],
      "name": "transferOwnership",
      "outputs": [],
      "payable": false,
      "stateMutability": "nonpayable",
      "type": "function"
    },
    {
      "anonymous": false,
      "inputs": [
        {
          "indexed": false,
          "name": "previousOwner",
          "type": "address"
        },
        {
          "indexed": false,
          "name": "newOwner",
          "type": "address"
        }
      ],
      "name": "OwnershipTransferred",
      "type": "event"
    },
    {
      "constant": true,
      "inputs": [],
      "name": "initialized",
      "outputs": [
        {
          "name": "",
          "type": "bool"
        }
      ],
      "payable": false,
      "stateMutability": "view",
      "type": "function"
    },
    {
      "constant": false,
      "inputs": [
        {
          "name": "newAdministrator",
          "type": "address"
        }
      ],
      "name": "initialize",
      "outputs": [],
      "payable": false,
      "stateMutability": "nonpayable",
      "type": "function"
    },
    {
      "constant": false,
      "inputs": [],
      "name": "registerMember",
      "outputs": [],
      "payable": false,
      "stateMutability": "nonpayable",
      "type": "function"
    },
    {
      "constant": false,
      "inputs": [
        {
          "name": "member",
          "type": "address"
        }
      ],
      "name": "registerMember",
      "outputs": [],
      "payable": false,
      "stateMutability": "nonpayable",
      "type": "function"
    },
    {
      "constant": false,
      "inputs": [
        {
          "name": "partner",
          "type": "address"
        }
      ],
      "name": "registerPartner",
      "outputs": [],
      "payable": false,
      "stateMutability": "nonpayable",
      "type": "function"
    },
    {
      "constant": false,
      "inputs": [],
      "name": "registerPartner",
      "outputs": [],
      "payable": false,
      "stateMutability": "nonpayable",
      "type": "function"
    },
    {
      "constant": false,
      "inputs": [
        {
          "name": "_points",
          "type": "uint256"
        },
        {
          "name": "_partnerAddress",
          "type": "address"
        }
      ],
      "name": "earnPoints",
      "outputs": [],
      "payable": false,
      "stateMutability": "nonpayable",
      "type": "function"
    },
    {
      "constant": false,
      "inputs": [
        {
          "name": "_points",
          "type": "uint256"
        },
        {
          "name": "_partnerAddress",
          "type": "address"
        }
      ],
      "name": "usePoints",
      "outputs": [],
      "payable": false,
      "stateMutability": "nonpayable",
      "type": "function"
    },
    {
      "constant": true,
      "inputs": [],
      "name": "transactionsInfoLength",
      "outputs": [
        {
          "name": "",
          "type": "uint256"
        }
      ],
      "payable": false,
      "stateMutability": "view",
      "type": "function"
    },
    {
      "constant": true,
      "inputs": [],
      "name": "partnersInfoLength",
      "outputs": [
        {
          "name": "",
          "type": "uint256"
        }
      ],
      "payable": false,
      "stateMutability": "view",
      "type": "function"
    }
  ],
  "bytecode": "0x608060405234801561001057600080fd5b50611974806100206000396000f3fe608060405234801561001057600080fd5b50600436106101005760003560e01c80637dad133811610097578063d5763aea11610066578063d5763aea146104a9578063e6a14a7c14610522578063f2fde38b14610540578063fcb4888e1461058457610100565b80637dad1338146103825780638da5cb5b1461038c57806395c33652146103d6578063c4d66de81461046557610100565b80634d11b26b116100d35780634d11b26b1461021f57806360bd26831461026d57806360f8dd7e146102bb578063674c7099146102c557610100565b806308ae4b0c1461010557806308f7fbbe1461019b57806309b56911146101df578063158ef93e146101fd575b600080fd5b6101476004803603602081101561011b57600080fd5b81019080803573ffffffffffffffffffffffffffffffffffffffff1690602001909291905050506105c8565b604051808473ffffffffffffffffffffffffffffffffffffffff1673ffffffffffffffffffffffffffffffffffffffff16815260200183815260200182151515158152602001935050505060405180910390f35b6101dd600480360360208110156101b157600080fd5b81019080803573ffffffffffffffffffffffffffffffffffffffff16906020019092919050505061061f565b005b6101e7610905565b6040518082815260200191505060405180910390f35b610205610912565b604051808215151515815260200191505060405180910390f35b61026b6004803603604081101561023557600080fd5b8101908080359060200190929190803573ffffffffffffffffffffffffffffffffffffffff16906020019092919050505061096f565b005b6102b96004803603604081101561028357600080fd5b8101908080359060200190929190803573ffffffffffffffffffffffffffffffffffffffff169060200190929190505050610de0565b005b6102c361119b565b005b6102f1600480360360208110156102db57600080fd5b81019080803590602001909291905050506111a6565b6040518085815260200184600181111561030757fe5b60ff1681526020018373ffffffffffffffffffffffffffffffffffffffff1673ffffffffffffffffffffffffffffffffffffffff1681526020018273ffffffffffffffffffffffffffffffffffffffff1673ffffffffffffffffffffffffffffffffffffffff16815260200194505050505060405180910390f35b61038a611230565b005b61039461123b565b604051808273ffffffffffffffffffffffffffffffffffffffff1673ffffffffffffffffffffffffffffffffffffffff16815260200191505060405180910390f35b610418600480360360208110156103ec57600080fd5b81019080803573ffffffffffffffffffffffffffffffffffffffff1690602001909291905050506112ab565b604051808373ffffffffffffffffffffffffffffffffffffffff1673ffffffffffffffffffffffffffffffffffffffff168152602001821515151581526020019250505060405180910390f35b6104a76004803603602081101561047b57600080fd5b81019080803573ffffffffffffffffffffffffffffffffffffffff1690602001909291905050506112fc565b005b6104d5600480360360208110156104bf57600080fd5b81019080803590602001909291905050506113e4565b604051808373ffffffffffffffffffffffffffffffffffffffff1673ffffffffffffffffffffffffffffffffffffffff168152602001821515151581526020019250505060405180910390f35b61052a61143e565b6040518082815260200191505060405180910390f35b6105826004803603602081101561055657600080fd5b81019080803573ffffffffffffffffffffffffffffffffffffffff16906020019092919050505061144b565b005b6105c66004803603602081101561059a57600080fd5b81019080803573ffffffffffffffffffffffffffffffffffffffff1690602001909291905050506115a2565b005b60006020528060005260406000206000915090508060000160009054906101000a900473ffffffffffffffffffffffffffffffffffffffff16908060010154908060020160009054906101000a900460ff16905083565b6000808273ffffffffffffffffffffffffffffffffffffffff1673ffffffffffffffffffffffffffffffffffffffff16815260200190815260200160002060020160009054906101000a900460ff16156106c4576040517f08c379a00000000000000000000000000000000000000000000000000000000081526004018080602001828103825260248152602001806119256024913960400191505060405180910390fd5b600160008273ffffffffffffffffffffffffffffffffffffffff1673ffffffffffffffffffffffffffffffffffffffff16815260200190815260200160002060000160149054906101000a900460ff161561076a576040517f08c379a00000000000000000000000000000000000000000000000000000000081526004018080602001828103825260258152602001806119006025913960400191505060405180910390fd5b60405180604001604052808273ffffffffffffffffffffffffffffffffffffffff16815260200160011515815250600160008373ffffffffffffffffffffffffffffffffffffffff1673ffffffffffffffffffffffffffffffffffffffff16815260200190815260200160002060008201518160000160006101000a81548173ffffffffffffffffffffffffffffffffffffffff021916908373ffffffffffffffffffffffffffffffffffffffff16021790555060208201518160000160146101000a81548160ff021916908315150217905550905050600260405180604001604052808373ffffffffffffffffffffffffffffffffffffffff1681526020016001151581525090806001815401808255809150509060018203906000526020600020016000909192909190915060008201518160000160006101000a81548173ffffffffffffffffffffffffffffffffffffffff021916908373ffffffffffffffffffffffffffffffffffffffff16021790555060208201518160000160146101000a81548160ff02191690831515021790555050505050565b6000600380549050905090565b60006004600060405180807f6c6f79616c74795f706f696e74735f696e697469616c697a6564000000000000815250601a0190506040518091039020815260200190815260200160002060009054906101000a900460ff16905090565b6000803373ffffffffffffffffffffffffffffffffffffffff1673ffffffffffffffffffffffffffffffffffffffff16815260200190815260200160002060020160009054906101000a900460ff16610a30576040517f08c379a000000000000000000000000000000000000000000000000000000000815260040180806020018281038252601f8152602001807f53656e646572206e6f742072656769737465726564206173204d656d6265720081525060200191505060405180910390fd5b600160008273ffffffffffffffffffffffffffffffffffffffff1673ffffffffffffffffffffffffffffffffffffffff16815260200190815260200160002060000160149054906101000a900460ff16610af2576040517f08c379a00000000000000000000000000000000000000000000000000000000081526004018080602001828103825260198152602001807f506172746e65722061646472657373206e6f7420666f756e640000000000000081525060200191505060405180910390fd5b816000803373ffffffffffffffffffffffffffffffffffffffff1673ffffffffffffffffffffffffffffffffffffffff168152602001908152602001600020600101541015610ba9576040517f08c379a00000000000000000000000000000000000000000000000000000000081526004018080602001828103825260138152602001807f496e73756666696369656e7420706f696e74730000000000000000000000000081525060200191505060405180910390fd5b816000803373ffffffffffffffffffffffffffffffffffffffff1673ffffffffffffffffffffffffffffffffffffffff16815260200190815260200160002060010154036000803373ffffffffffffffffffffffffffffffffffffffff1673ffffffffffffffffffffffffffffffffffffffff1681526020019081526020016000206001018190555060036040518060800160405280848152602001600180811115610c5157fe5b81526020016000803373ffffffffffffffffffffffffffffffffffffffff1673ffffffffffffffffffffffffffffffffffffffff16815260200190815260200160002060000160009054906101000a900473ffffffffffffffffffffffffffffffffffffffff1673ffffffffffffffffffffffffffffffffffffffff1681526020018373ffffffffffffffffffffffffffffffffffffffff16815250908060018154018082558091505090600182039060005260206000209060030201600090919290919091506000820151816000015560208201518160010160006101000a81548160ff02191690836001811115610d4657fe5b021790555060408201518160010160016101000a81548173ffffffffffffffffffffffffffffffffffffffff021916908373ffffffffffffffffffffffffffffffffffffffff16021790555060608201518160020160006101000a81548173ffffffffffffffffffffffffffffffffffffffff021916908373ffffffffffffffffffffffffffffffffffffffff1602179055505050505050565b6000803373ffffffffffffffffffffffffffffffffffffffff1673ffffffffffffffffffffffffffffffffffffffff16815260200190815260200160002060020160009054906101000a900460ff16610ea1576040517f08c379a000000000000000000000000000000000000000000000000000000000815260040180806020018281038252601f8152602001807f53656e646572206e6f742072656769737465726564206173204d656d6265720081525060200191505060405180910390fd5b600160008273ffffffffffffffffffffffffffffffffffffffff1673ffffffffffffffffffffffffffffffffffffffff16815260200190815260200160002060000160149054906101000a900460ff16610f63576040517f08c379a00000000000000000000000000000000000000000000000000000000081526004018080602001828103825260198152602001807f506172746e65722061646472657373206e6f7420666f756e640000000000000081525060200191505060405180910390fd5b816000803373ffffffffffffffffffffffffffffffffffffffff1673ffffffffffffffffffffffffffffffffffffffff16815260200190815260200160002060010154016000803373ffffffffffffffffffffffffffffffffffffffff1673ffffffffffffffffffffffffffffffffffffffff16815260200190815260200160002060010181905550600360405180608001604052808481526020016000600181111561100c57fe5b81526020016000803373ffffffffffffffffffffffffffffffffffffffff1673ffffffffffffffffffffffffffffffffffffffff16815260200190815260200160002060000160009054906101000a900473ffffffffffffffffffffffffffffffffffffffff1673ffffffffffffffffffffffffffffffffffffffff1681526020018373ffffffffffffffffffffffffffffffffffffffff16815250908060018154018082558091505090600182039060005260206000209060030201600090919290919091506000820151816000015560208201518160010160006101000a81548160ff0219169083600181111561110157fe5b021790555060408201518160010160016101000a81548173ffffffffffffffffffffffffffffffffffffffff021916908373ffffffffffffffffffffffffffffffffffffffff16021790555060608201518160020160006101000a81548173ffffffffffffffffffffffffffffffffffffffff021916908373ffffffffffffffffffffffffffffffffffffffff1602179055505050505050565b6111a4336115a2565b565b600381815481106111b357fe5b90600052602060002090600302016000915090508060000154908060010160009054906101000a900460ff16908060010160019054906101000a900473ffffffffffffffffffffffffffffffffffffffff16908060020160009054906101000a900473ffffffffffffffffffffffffffffffffffffffff16905084565b6112393361061f565b565b60006009600060405180807f6f776e657200000000000000000000000000000000000000000000000000000081525060050190506040518091039020815260200190815260200160002060009054906101000a900473ffffffffffffffffffffffffffffffffffffffff16905090565b60016020528060005260406000206000915090508060000160009054906101000a900473ffffffffffffffffffffffffffffffffffffffff16908060000160149054906101000a900460ff16905082565b611304610912565b15611377576040517f08c379a000000000000000000000000000000000000000000000000000000000815260040180806020018281038252601f8152602001807f496e697469616c697a6174696f6e20616c72656164792065786563757465640081525060200191505060405180910390fd5b611380816117d7565b60016004600060405180807f6c6f79616c74795f706f696e74735f696e697469616c697a6564000000000000815250601a0190506040518091039020815260200190815260200160002060006101000a81548160ff02191690831515021790555050565b600281815481106113f157fe5b906000526020600020016000915090508060000160009054906101000a900473ffffffffffffffffffffffffffffffffffffffff16908060000160149054906101000a900460ff16905082565b6000600280549050905090565b61145361123b565b73ffffffffffffffffffffffffffffffffffffffff163373ffffffffffffffffffffffffffffffffffffffff16146114f3576040517f08c379a00000000000000000000000000000000000000000000000000000000081526004018080602001828103825260188152602001807f4f6e6c79206f776e65722068617320746865207269676874000000000000000081525060200191505060405180910390fd5b600073ffffffffffffffffffffffffffffffffffffffff168173ffffffffffffffffffffffffffffffffffffffff161415611596576040517f08c379a000000000000000000000000000000000000000000000000000000000815260040180806020018281038252601a8152602001807f456d707479206f776e6572206973206e6f7420616c6c6f77656400000000000081525060200191505060405180910390fd5b61159f816117d7565b50565b6000808273ffffffffffffffffffffffffffffffffffffffff1673ffffffffffffffffffffffffffffffffffffffff16815260200190815260200160002060020160009054906101000a900460ff1615611647576040517f08c379a00000000000000000000000000000000000000000000000000000000081526004018080602001828103825260248152602001806119256024913960400191505060405180910390fd5b600160008273ffffffffffffffffffffffffffffffffffffffff1673ffffffffffffffffffffffffffffffffffffffff16815260200190815260200160002060000160149054906101000a900460ff16156116ed576040517f08c379a00000000000000000000000000000000000000000000000000000000081526004018080602001828103825260258152602001806119006025913960400191505060405180910390fd5b60405180606001604052808273ffffffffffffffffffffffffffffffffffffffff16815260200160008152602001600115158152506000808373ffffffffffffffffffffffffffffffffffffffff1673ffffffffffffffffffffffffffffffffffffffff16815260200190815260200160002060008201518160000160006101000a81548173ffffffffffffffffffffffffffffffffffffffff021916908373ffffffffffffffffffffffffffffffffffffffff1602179055506020820151816001015560408201518160020160006101000a81548160ff02191690831515021790555090505050565b7f8be0079c531659141344cd1fd0a4f28419497f9722a3daafe3b4186f6b6457e061180061123b565b82604051808373ffffffffffffffffffffffffffffffffffffffff1673ffffffffffffffffffffffffffffffffffffffff1681526020018273ffffffffffffffffffffffffffffffffffffffff1673ffffffffffffffffffffffffffffffffffffffff1681526020019250505060405180910390a1806009600060405180807f6f776e657200000000000000000000000000000000000000000000000000000081525060050190506040518091039020815260200190815260200160002060006101000a81548173ffffffffffffffffffffffffffffffffffffffff021916908373ffffffffffffffffffffffffffffffffffffffff1602179055505056fe4163636f756e7420616c7265616479207265676973746572656420617320506172746e65724163636f756e7420616c72656164792072656769737465726564206173204d656d626572a165627a7a72305820d960f03a49fc158108228faba97ddeff61e8415f324025aa466fc5c46e5202c80029",
  "source": "pragma solidity >=0.5.8 <0.6.0;\r\n\r\nimport './PointsTokenStorage.sol';\r\nimport './Ownable.sol';\r\n\r\n\r\ncontract LoyaltyPoints is PointsTokenStorage, Ownable {\r\n\r\n    function initialized() public view returns (bool) {\r\n        return boolStorage[keccak256('loyalty_points_initialized')];\r\n    }\r\n\r\n    function initialize(address newAdministrator) public {\r\n        require(!initialized(), 'Initialization already executed');\r\n        setOwner(newAdministrator);\r\n        boolStorage[keccak256('loyalty_points_initialized')] = true;\r\n    }\r\n\r\n    function registerMember () public {\r\n        registerMember(msg.sender);\r\n    }\r\n\r\n    //register sender as member\r\n    function registerMember (address member) public {\r\n        //check msg.sender in existing members\r\n        require(!members[member].isRegistered, \"Account already registered as Member\");\r\n\r\n        //check msg.sender in existing partners\r\n        require(!partners[member].isRegistered, \"Account already registered as Partner\");\r\n\r\n        //add member account\r\n        members[member] = Member(member, 0, true);\r\n    }\r\n\r\n    function registerPartner () public {\r\n        registerPartner(msg.sender);\r\n    }\r\n\r\n    //register sender as partner\r\n    function registerPartner (address partner) public {\r\n        //check msg.sender in existing members\r\n        require(!members[partner].isRegistered, \"Account already registered as Member\");\r\n\r\n        //check msg.sender in existing partners\r\n        require(!partners[partner].isRegistered, \"Account already registered as Partner\");\r\n\r\n        //add partner account\r\n        partners[partner] = Partner(partner, true);\r\n\r\n        //add partners info to be shared with members\r\n        partnersInfo.push(Partner(partner, true));\r\n\r\n    }\r\n\r\n    //update member with points earned\r\n    function earnPoints (uint _points, address _partnerAddress) public {\r\n        // only member can call\r\n        require(members[msg.sender].isRegistered, \"Sender not registered as Member\");\r\n\r\n        // verify partner address\r\n        require(partners[_partnerAddress].isRegistered, \"Partner address not found\");\r\n\r\n        // update member account\r\n        members[msg.sender].points = members[msg.sender].points + _points;\r\n\r\n        // add transction\r\n        transactionsInfo.push(PointsTransaction({\r\n            points: _points,\r\n            transactionType: TransactionType.Earned,\r\n            memberAddress: members[msg.sender].memberAddress,\r\n            partnerAddress: _partnerAddress\r\n        }));\r\n\r\n    }\r\n\r\n    //update member with points used\r\n    function usePoints (uint _points, address _partnerAddress) public {\r\n        // only member can call\r\n        require(members[msg.sender].isRegistered, \"Sender not registered as Member\");\r\n\r\n        // verify partner address\r\n        require(partners[_partnerAddress].isRegistered, \"Partner address not found\");\r\n\r\n        // verify enough points for member\r\n        require(members[msg.sender].points >= _points, \"Insufficient points\");\r\n\r\n        // update member account\r\n        members[msg.sender].points = members[msg.sender].points - _points;\r\n\r\n        // add transction\r\n        transactionsInfo.push(PointsTransaction({\r\n            points: _points,\r\n            transactionType: TransactionType.Redeemed,\r\n            memberAddress: members[msg.sender].memberAddress,\r\n            partnerAddress: _partnerAddress\r\n        }));\r\n    }\r\n\r\n    //get length of transactionsInfo array\r\n    function transactionsInfoLength() public view returns(uint256) {\r\n        return transactionsInfo.length;\r\n    }\r\n\r\n    //get length of partnersInfo array\r\n    function partnersInfoLength() public view returns(uint256) {\r\n        return partnersInfo.length;\r\n    }\r\n\r\n}",
  "sourcePath": "/mnt/d/Documents/Projects/Synergy/Projects/synergy-loyalty-app/contracts/LoyaltyPoints.sol",
  "compiler": {
    "name": "solc",
    "version": "0.5.8+commit.23d335f2.Emscripten.clang"
  },
  "schemaVersion": "3.0.16",
  "updatedAt": "2019-10-01T20:12:18.759Z",
  "devdoc": {
    "methods": {
      "owner()": {
        "details": "Tells the address of the owner\r",
        "return": "the address of the owner\r"
      },
      "transferOwnership(address)": {
        "details": "Allows the current owner to transfer control of the contract to a newOwner.\r",
        "params": {
          "newOwner": "the address to transfer ownership to.\r"
        }
      }
    }
  },
  "userdoc": {
    "methods": {}
  }
}