{
  "contractName": "Ownable",
  "abi": [
    {
      "constant": true,
      "inputs": [
        {
          "name": "",
          "type": "address"
        }
      ],
      "name": "members",
      "outputs": [
        {
          "name": "memberAddress",
          "type": "address"
        },
        {
          "name": "points",
          "type": "uint256"
        },
        {
          "name": "isRegistered",
          "type": "bool"
        }
      ],
      "payable": false,
      "stateMutability": "view",
      "type": "function"
    },
    {
      "constant": true,
      "inputs": [
        {
          "name": "",
          "type": "uint256"
        }
      ],
      "name": "transactionsInfo",
      "outputs": [
        {
          "name": "points",
          "type": "uint256"
        },
        {
          "name": "transactionType",
          "type": "uint8"
        },
        {
          "name": "memberAddress",
          "type": "address"
        },
        {
          "name": "partnerAddress",
          "type": "address"
        }
      ],
      "payable": false,
      "stateMutability": "view",
      "type": "function"
    },
    {
      "constant": true,
      "inputs": [
        {
          "name": "",
          "type": "address"
        }
      ],
      "name": "partners",
      "outputs": [
        {
          "name": "partnerAddress",
          "type": "address"
        },
        {
          "name": "isRegistered",
          "type": "bool"
        }
      ],
      "payable": false,
      "stateMutability": "view",
      "type": "function"
    },
    {
      "constant": true,
      "inputs": [
        {
          "name": "",
          "type": "uint256"
        }
      ],
      "name": "partnersInfo",
      "outputs": [
        {
          "name": "partnerAddress",
          "type": "address"
        },
        {
          "name": "isRegistered",
          "type": "bool"
        }
      ],
      "payable": false,
      "stateMutability": "view",
      "type": "function"
    },
    {
      "anonymous": false,
      "inputs": [
        {
          "indexed": false,
          "name": "previousOwner",
          "type": "address"
        },
        {
          "indexed": false,
          "name": "newOwner",
          "type": "address"
        }
      ],
      "name": "OwnershipTransferred",
      "type": "event"
    },
    {
      "constant": true,
      "inputs": [],
      "name": "owner",
      "outputs": [
        {
          "name": "",
          "type": "address"
        }
      ],
      "payable": false,
      "stateMutability": "view",
      "type": "function"
    },
    {
      "constant": false,
      "inputs": [
        {
          "name": "newOwner",
          "type": "address"
        }
      ],
      "name": "transferOwnership",
      "outputs": [],
      "payable": false,
      "stateMutability": "nonpayable",
      "type": "function"
    }
  ],
  "bytecode": "0x608060405234801561001057600080fd5b506107f7806100206000396000f3fe608060405234801561001057600080fd5b50600436106100625760003560e01c806308ae4b0c14610067578063674c7099146100fd5780638da5cb5b146101ba57806395c3365214610204578063d5763aea14610293578063f2fde38b1461030c575b600080fd5b6100a96004803603602081101561007d57600080fd5b81019080803573ffffffffffffffffffffffffffffffffffffffff169060200190929190505050610350565b604051808473ffffffffffffffffffffffffffffffffffffffff1673ffffffffffffffffffffffffffffffffffffffff16815260200183815260200182151515158152602001935050505060405180910390f35b6101296004803603602081101561011357600080fd5b81019080803590602001909291905050506103a7565b6040518085815260200184600181111561013f57fe5b60ff1681526020018373ffffffffffffffffffffffffffffffffffffffff1673ffffffffffffffffffffffffffffffffffffffff1681526020018273ffffffffffffffffffffffffffffffffffffffff1673ffffffffffffffffffffffffffffffffffffffff16815260200194505050505060405180910390f35b6101c2610431565b604051808273ffffffffffffffffffffffffffffffffffffffff1673ffffffffffffffffffffffffffffffffffffffff16815260200191505060405180910390f35b6102466004803603602081101561021a57600080fd5b81019080803573ffffffffffffffffffffffffffffffffffffffff1690602001909291905050506104a1565b604051808373ffffffffffffffffffffffffffffffffffffffff1673ffffffffffffffffffffffffffffffffffffffff168152602001821515151581526020019250505060405180910390f35b6102bf600480360360208110156102a957600080fd5b81019080803590602001909291905050506104f2565b604051808373ffffffffffffffffffffffffffffffffffffffff1673ffffffffffffffffffffffffffffffffffffffff168152602001821515151581526020019250505060405180910390f35b61034e6004803603602081101561032257600080fd5b81019080803573ffffffffffffffffffffffffffffffffffffffff16906020019092919050505061054c565b005b60006020528060005260406000206000915090508060000160009054906101000a900473ffffffffffffffffffffffffffffffffffffffff16908060010154908060020160009054906101000a900460ff16905083565b600381815481106103b457fe5b90600052602060002090600302016000915090508060000154908060010160009054906101000a900460ff16908060010160019054906101000a900473ffffffffffffffffffffffffffffffffffffffff16908060020160009054906101000a900473ffffffffffffffffffffffffffffffffffffffff16905084565b60006009600060405180807f6f776e657200000000000000000000000000000000000000000000000000000081525060050190506040518091039020815260200190815260200160002060009054906101000a900473ffffffffffffffffffffffffffffffffffffffff16905090565b60016020528060005260406000206000915090508060000160009054906101000a900473ffffffffffffffffffffffffffffffffffffffff16908060000160149054906101000a900460ff16905082565b600281815481106104ff57fe5b906000526020600020016000915090508060000160009054906101000a900473ffffffffffffffffffffffffffffffffffffffff16908060000160149054906101000a900460ff16905082565b610554610431565b73ffffffffffffffffffffffffffffffffffffffff163373ffffffffffffffffffffffffffffffffffffffff16146105f4576040517f08c379a00000000000000000000000000000000000000000000000000000000081526004018080602001828103825260188152602001807f4f6e6c79206f776e65722068617320746865207269676874000000000000000081525060200191505060405180910390fd5b600073ffffffffffffffffffffffffffffffffffffffff168173ffffffffffffffffffffffffffffffffffffffff161415610697576040517f08c379a000000000000000000000000000000000000000000000000000000000815260040180806020018281038252601a8152602001807f456d707479206f776e6572206973206e6f7420616c6c6f77656400000000000081525060200191505060405180910390fd5b6106a0816106a3565b50565b7f8be0079c531659141344cd1fd0a4f28419497f9722a3daafe3b4186f6b6457e06106cc610431565b82604051808373ffffffffffffffffffffffffffffffffffffffff1673ffffffffffffffffffffffffffffffffffffffff1681526020018273ffffffffffffffffffffffffffffffffffffffff1673ffffffffffffffffffffffffffffffffffffffff1681526020019250505060405180910390a1806009600060405180807f6f776e657200000000000000000000000000000000000000000000000000000081525060050190506040518091039020815260200190815260200160002060006101000a81548173ffffffffffffffffffffffffffffffffffffffff021916908373ffffffffffffffffffffffffffffffffffffffff1602179055505056fea165627a7a72305820a76c4fb0c2320b61c084f891d647cee1789d8a7ef09016e3645deb31dcf1de100029",
  "source": "pragma solidity >=0.5.8 <0.6.0;\r\n\r\nimport './PointsTokenStorage.sol';\r\n\r\n/**\r\n * @title Ownable\r\n * @dev This contract has an owner address providing basic authorization control\r\n */\r\ncontract Ownable is PointsTokenStorage {\r\n  /**\r\n   * @dev Event to show ownership has been transferred\r\n   * @param previousOwner representing the address of the previous owner\r\n   * @param newOwner representing the address of the new owner\r\n   */\r\n  event OwnershipTransferred(address previousOwner, address newOwner);\r\n\r\n  /**\r\n   * @dev Throws if called by any account other than the owner.\r\n   */\r\n  modifier onlyOwner() {\r\n    require(msg.sender == owner(), \"Only owner has the right\");\r\n    _;\r\n  }\r\n\r\n  /**\r\n   * @dev Tells the address of the owner\r\n   * @return the address of the owner\r\n   */\r\n  function owner() public view returns (address) {\r\n    return addressStorage[keccak256(\"owner\")];\r\n  }\r\n\r\n  /**\r\n   * @dev Allows the current owner to transfer control of the contract to a newOwner.\r\n   * @param newOwner the address to transfer ownership to.\r\n   */\r\n  function transferOwnership(address newOwner) public onlyOwner {\r\n    require(newOwner != address(0), \"Empty owner is not allowed\");\r\n    setOwner(newOwner);\r\n  }\r\n\r\n  /**\r\n   * @dev Sets a new owner address\r\n   */\r\n  function setOwner(address newOwner) internal {\r\n    emit OwnershipTransferred(owner(), newOwner);\r\n    addressStorage[keccak256(\"owner\")] = newOwner;\r\n  }\r\n}",
  "sourcePath": "/mnt/d/Documents/Projects/Synergy/Projects/synergy-loyalty-app/contracts/Ownable.sol",
  "compiler": {
    "name": "solc",
    "version": "0.5.8+commit.23d335f2.Emscripten.clang"
  },
  "schemaVersion": "3.0.16",
  "updatedAt": "2019-10-01T20:12:16.789Z",
  "devdoc": {
    "details": "This contract has an owner address providing basic authorization control\r",
    "methods": {
      "owner()": {
        "details": "Tells the address of the owner\r",
        "return": "the address of the owner\r"
      },
      "transferOwnership(address)": {
        "details": "Allows the current owner to transfer control of the contract to a newOwner.\r",
        "params": {
          "newOwner": "the address to transfer ownership to.\r"
        }
      }
    },
    "title": "Ownable\r"
  },
  "userdoc": {
    "methods": {}
  }
}