{
  "contractName": "OwnedUpgradeabilityProxy",
  "abi": [
    {
      "constant": true,
      "inputs": [],
      "name": "version",
      "outputs": [
        {
          "name": "",
          "type": "string"
        }
      ],
      "payable": false,
      "stateMutability": "view",
      "type": "function"
    },
    {
      "constant": true,
      "inputs": [],
      "name": "implementation",
      "outputs": [
        {
          "name": "",
          "type": "address"
        }
      ],
      "payable": false,
      "stateMutability": "view",
      "type": "function"
    },
    {
      "constant": true,
      "inputs": [],
      "name": "upgradeabilityOwner",
      "outputs": [
        {
          "name": "",
          "type": "address"
        }
      ],
      "payable": false,
      "stateMutability": "view",
      "type": "function"
    },
    {
      "inputs": [],
      "payable": false,
      "stateMutability": "nonpayable",
      "type": "constructor"
    },
    {
      "payable": true,
      "stateMutability": "payable",
      "type": "fallback"
    },
    {
      "anonymous": false,
      "inputs": [
        {
          "indexed": false,
          "name": "previousOwner",
          "type": "address"
        },
        {
          "indexed": false,
          "name": "newOwner",
          "type": "address"
        }
      ],
      "name": "ProxyOwnershipTransferred",
      "type": "event"
    },
    {
      "anonymous": false,
      "inputs": [
        {
          "indexed": false,
          "name": "version",
          "type": "string"
        },
        {
          "indexed": true,
          "name": "implementation",
          "type": "address"
        }
      ],
      "name": "Upgraded",
      "type": "event"
    },
    {
      "constant": true,
      "inputs": [],
      "name": "proxyOwner",
      "outputs": [
        {
          "name": "",
          "type": "address"
        }
      ],
      "payable": false,
      "stateMutability": "view",
      "type": "function"
    },
    {
      "constant": false,
      "inputs": [
        {
          "name": "newOwner",
          "type": "address"
        }
      ],
      "name": "transferProxyOwnership",
      "outputs": [],
      "payable": false,
      "stateMutability": "nonpayable",
      "type": "function"
    },
    {
      "constant": false,
      "inputs": [
        {
          "name": "version",
          "type": "string"
        },
        {
          "name": "implementation",
          "type": "address"
        }
      ],
      "name": "upgradeTo",
      "outputs": [],
      "payable": false,
      "stateMutability": "nonpayable",
      "type": "function"
    },
    {
      "constant": false,
      "inputs": [
        {
          "name": "version",
          "type": "string"
        },
        {
          "name": "implementation",
          "type": "address"
        },
        {
          "name": "data",
          "type": "bytes"
        }
      ],
      "name": "upgradeToAndCall",
      "outputs": [],
      "payable": true,
      "stateMutability": "payable",
      "type": "function"
    }
  ],
  "bytecode": "0x608060405234801561001057600080fd5b506100203361002560201b60201c565b610068565b806000806101000a81548173ffffffffffffffffffffffffffffffffffffffff021916908373ffffffffffffffffffffffffffffffffffffffff16021790555050565b610d8f806100776000396000f3fe6080604052600436106100705760003560e01c80635c60da1b1161004e5780635c60da1b146103155780636fde82021461036c578063958a41dd146103c3578063f1739cae1461053557610070565b8063025313a21461014657806354fd4d501461019d5780635a8b1a9f1461022d575b600061007a610586565b9050600073ffffffffffffffffffffffffffffffffffffffff168173ffffffffffffffffffffffffffffffffffffffff16141561011f576040517f08c379a00000000000000000000000000000000000000000000000000000000081526004018080602001828103825260178152602001807f496d706c656d656e746174696f6e20697320656d70747900000000000000000081525060200191505060405180910390fd5b60405136600082376000803683855af43d806000843e8160008114610142578184f35b8184fd5b34801561015257600080fd5b5061015b6105b0565b604051808273ffffffffffffffffffffffffffffffffffffffff1673ffffffffffffffffffffffffffffffffffffffff16815260200191505060405180910390f35b3480156101a957600080fd5b506101b26105bf565b6040518080602001828103825283818151815260200191508051906020019080838360005b838110156101f25780820151818401526020810190506101d7565b50505050905090810190601f16801561021f5780820380516001836020036101000a031916815260200191505b509250505060405180910390f35b34801561023957600080fd5b506103136004803603604081101561025057600080fd5b810190808035906020019064010000000081111561026d57600080fd5b82018360208201111561027f57600080fd5b803590602001918460018302840111640100000000831117156102a157600080fd5b91908080601f016020809104026020016040519081016040528093929190818152602001838380828437600081840152601f19601f820116905080830192505050505050509192919290803573ffffffffffffffffffffffffffffffffffffffff169060200190929190505050610661565b005b34801561032157600080fd5b5061032a610586565b604051808273ffffffffffffffffffffffffffffffffffffffff1673ffffffffffffffffffffffffffffffffffffffff16815260200191505060405180910390f35b34801561037857600080fd5b50610381610717565b604051808273ffffffffffffffffffffffffffffffffffffffff1673ffffffffffffffffffffffffffffffffffffffff16815260200191505060405180910390f35b610533600480360360608110156103d957600080fd5b81019080803590602001906401000000008111156103f657600080fd5b82018360208201111561040857600080fd5b8035906020019184600183028401116401000000008311171561042a57600080fd5b91908080601f016020809104026020016040519081016040528093929190818152602001838380828437600081840152601f19601f820116905080830192505050505050509192919290803573ffffffffffffffffffffffffffffffffffffffff169060200190929190803590602001906401000000008111156104ad57600080fd5b8201836020820111156104bf57600080fd5b803590602001918460018302840111640100000000831117156104e157600080fd5b91908080601f016020809104026020016040519081016040528093929190818152602001838380828437600081840152601f19601f820116905080830192505050505050509192919290505050610740565b005b34801561054157600080fd5b506105846004803603602081101561055857600080fd5b81019080803573ffffffffffffffffffffffffffffffffffffffff1690602001909291905050506108b3565b005b6000600260009054906101000a900473ffffffffffffffffffffffffffffffffffffffff16905090565b60006105ba610717565b905090565b606060018054600181600116156101000203166002900480601f0160208091040260200160405190810160405280929190818152602001828054600181600116156101000203166002900480156106575780601f1061062c57610100808354040283529160200191610657565b820191906000526020600020905b81548152906001019060200180831161063a57829003601f168201915b5050505050905090565b6106696105b0565b73ffffffffffffffffffffffffffffffffffffffff163373ffffffffffffffffffffffffffffffffffffffff1614610709576040517f08c379a00000000000000000000000000000000000000000000000000000000081526004018080602001828103825260148152602001807f43616c6c6564206f6e6c79206279206f776e657200000000000000000000000081525060200191505060405180910390fd5b6107138282610aa8565b5050565b60008060009054906101000a900473ffffffffffffffffffffffffffffffffffffffff16905090565b6107486105b0565b73ffffffffffffffffffffffffffffffffffffffff163373ffffffffffffffffffffffffffffffffffffffff16146107e8576040517f08c379a00000000000000000000000000000000000000000000000000000000081526004018080602001828103825260148152602001807f43616c6c6564206f6e6c79206279206f776e657200000000000000000000000081525060200191505060405180910390fd5b6107f28383610661565b60003090508073ffffffffffffffffffffffffffffffffffffffff1634836040518082805190602001908083835b602083106108435780518252602082019150602081019050602083039250610820565b6001836020036101000a03801982511681845116808217855250505050505090500191505060006040518083038185875af1925050503d80600081146108a5576040519150601f19603f3d011682016040523d82523d6000602084013e6108aa565b606091505b50505050505050565b6108bb6105b0565b73ffffffffffffffffffffffffffffffffffffffff163373ffffffffffffffffffffffffffffffffffffffff161461095b576040517f08c379a00000000000000000000000000000000000000000000000000000000081526004018080602001828103825260148152602001807f43616c6c6564206f6e6c79206279206f776e657200000000000000000000000081525060200191505060405180910390fd5b600073ffffffffffffffffffffffffffffffffffffffff168173ffffffffffffffffffffffffffffffffffffffff1614156109fe576040517f08c379a000000000000000000000000000000000000000000000000000000000815260040180806020018281038252601f8152602001807f4e756c6c206f776e65722076616c7565206973206e6f7420616c6c6f7765640081525060200191505060405180910390fd5b7f5a3e66efaa1e445ebd894728a69d6959842ea1e97bd79b892797106e270efcd9610a276105b0565b82604051808373ffffffffffffffffffffffffffffffffffffffff1673ffffffffffffffffffffffffffffffffffffffff1681526020018273ffffffffffffffffffffffffffffffffffffffff1673ffffffffffffffffffffffffffffffffffffffff1681526020019250505060405180910390a1610aa581610c7b565b50565b8073ffffffffffffffffffffffffffffffffffffffff16600260009054906101000a900473ffffffffffffffffffffffffffffffffffffffff1673ffffffffffffffffffffffffffffffffffffffff161415610b6c576040517f08c379a00000000000000000000000000000000000000000000000000000000081526004018080602001828103825260208152602001807f496d706c656d656e746174696f6e2063616e2774206265207468652073616d6581525060200191505060405180910390fd5b8160019080519060200190610b82929190610cbe565b5080600260006101000a81548173ffffffffffffffffffffffffffffffffffffffff021916908373ffffffffffffffffffffffffffffffffffffffff1602179055508073ffffffffffffffffffffffffffffffffffffffff167f8e05e0e35ff592971ca8b477d4285a33a61ded208d644042667b78693a472f5e836040518080602001828103825283818151815260200191508051906020019080838360005b83811015610c3d578082015181840152602081019050610c22565b50505050905090810190601f168015610c6a5780820380516001836020036101000a031916815260200191505b509250505060405180910390a25050565b806000806101000a81548173ffffffffffffffffffffffffffffffffffffffff021916908373ffffffffffffffffffffffffffffffffffffffff16021790555050565b828054600181600116156101000203166002900490600052602060002090601f016020900481019282601f10610cff57805160ff1916838001178555610d2d565b82800160010185558215610d2d579182015b82811115610d2c578251825591602001919060010190610d11565b5b509050610d3a9190610d3e565b5090565b610d6091905b80821115610d5c576000816000905550600101610d44565b5090565b9056fea165627a7a72305820f8f6af2440d92627f127897e2665a38a58989d74c3296b7d2f1bfafa7a4a59a90029",
  "source": "pragma solidity >=0.5.8 <0.6.0;\r\n\r\nimport './UpgradeabilityProxy.sol';\r\nimport './UpgradeabilityOwnerStorage.sol';\r\n\r\n/**\r\n * @title OwnedUpgradeabilityProxy\r\n * @dev This contract combines an upgradeability proxy with basic authorization control functionalities\r\n */\r\ncontract OwnedUpgradeabilityProxy is UpgradeabilityOwnerStorage, UpgradeabilityProxy {\r\n  /**\r\n  * @dev Event to show ownership has been transferred\r\n  * @param previousOwner representing the address of the previous owner\r\n  * @param newOwner representing the address of the new owner\r\n  */\r\n  event ProxyOwnershipTransferred(address previousOwner, address newOwner);\r\n\r\n  /**\r\n  * @dev the constructor sets the original owner of the contract to the sender account.\r\n  */\r\n  constructor() public {\r\n    setUpgradeabilityOwner(msg.sender);\r\n  }\r\n\r\n  /**\r\n  * @dev Throws if called by any account other than the owner.\r\n  */\r\n  modifier onlyProxyOwner() {\r\n    require(msg.sender == proxyOwner(), \"Called only by owner\");\r\n    _;\r\n  }\r\n\r\n  /**\r\n   * @dev Tells the address of the proxy owner\r\n   * @return the address of the proxy owner\r\n   */\r\n  function proxyOwner() public view returns (address) {\r\n    return upgradeabilityOwner();\r\n  }\r\n\r\n  /**\r\n   * @dev Allows the current owner to transfer control of the contract to a newOwner.\r\n   * @param newOwner The address to transfer ownership to.\r\n   */\r\n  function transferProxyOwnership(address newOwner) public onlyProxyOwner {\r\n    require(newOwner != address(0), \"Null owner value is not allowed\");\r\n    emit ProxyOwnershipTransferred(proxyOwner(), newOwner);\r\n    setUpgradeabilityOwner(newOwner);\r\n  }\r\n\r\n  /**\r\n   * @dev Allows the upgradeability owner to upgrade the current version of the proxy.\r\n   * @param version representing the version name of the new implementation to be set.\r\n   * @param implementation representing the address of the new implementation to be set.\r\n   */\r\n  function upgradeTo(string memory version, address implementation) public onlyProxyOwner {\r\n    _upgradeTo(version, implementation);\r\n  }\r\n\r\n  /**\r\n   * @dev Allows the upgradeability owner to upgrade the current version of the proxy and call the new implementation\r\n   * to initialize whatever is needed through a low level call.\r\n   * @param version representing the version name of the new implementation to be set.\r\n   * @param implementation representing the address of the new implementation to be set.\r\n   * @param data represents the msg.data to bet sent in the low level call. This parameter may include the function\r\n   * signature of the implementation to be called with the needed payload\r\n   */\r\n  function upgradeToAndCall(string memory version, address implementation, bytes memory data) public payable onlyProxyOwner {\r\n    upgradeTo(version, implementation);\r\n    address payable implCon = address(uint160(address(this)));\r\n    implCon.call.value(msg.value)(data);\r\n  }\r\n}",
  "sourcePath": "/mnt/d/Documents/Projects/Synergy/Projects/synergy-loyalty-app/contracts/OwnedUpgradeabilityProxy.sol",
  "compiler": {
    "name": "solc",
    "version": "0.5.8+commit.23d335f2.Emscripten.clang"
  },
  "schemaVersion": "3.0.16",
  "updatedAt": "2019-09-29T00:01:31.896Z",
  "devdoc": {
    "details": "This contract combines an upgradeability proxy with basic authorization control functionalities\r",
    "methods": {
      "constructor": {
        "details": "the constructor sets the original owner of the contract to the sender account.\r"
      },
      "implementation()": {
        "details": "Tells the address of the current implementation\r",
        "return": "address of the current implementation\r"
      },
      "proxyOwner()": {
        "details": "Tells the address of the proxy owner\r",
        "return": "the address of the proxy owner\r"
      },
      "transferProxyOwnership(address)": {
        "details": "Allows the current owner to transfer control of the contract to a newOwner.\r",
        "params": {
          "newOwner": "The address to transfer ownership to.\r"
        }
      },
      "upgradeTo(string,address)": {
        "details": "Allows the upgradeability owner to upgrade the current version of the proxy.\r",
        "params": {
          "implementation": "representing the address of the new implementation to be set.\r",
          "version": "representing the version name of the new implementation to be set.\r"
        }
      },
      "upgradeToAndCall(string,address,bytes)": {
        "details": "Allows the upgradeability owner to upgrade the current version of the proxy and call the new implementation\r to initialize whatever is needed through a low level call.\r",
        "params": {
          "data": "represents the msg.data to bet sent in the low level call. This parameter may include the function\r signature of the implementation to be called with the needed payload\r",
          "implementation": "representing the address of the new implementation to be set.\r",
          "version": "representing the version name of the new implementation to be set.\r"
        }
      },
      "upgradeabilityOwner()": {
        "details": "Tells the address of the owner\r",
        "return": "the address of the owner\r"
      },
      "version()": {
        "details": "Tells the version name of the current implementation\r",
        "return": "string representing the name of the current version\r"
      }
    },
    "title": "OwnedUpgradeabilityProxy\r"
  },
  "userdoc": {
    "methods": {}
  }
}