{
  "contractName": "PointsTokenStorage",
  "abi": [
    {
      "constant": true,
      "inputs": [
        {
          "name": "",
          "type": "address"
        }
      ],
      "name": "members",
      "outputs": [
        {
          "name": "memberAddress",
          "type": "address"
        },
        {
          "name": "points",
          "type": "uint256"
        },
        {
          "name": "isRegistered",
          "type": "bool"
        }
      ],
      "payable": false,
      "stateMutability": "view",
      "type": "function"
    },
    {
      "constant": true,
      "inputs": [
        {
          "name": "",
          "type": "uint256"
        }
      ],
      "name": "transactionsInfo",
      "outputs": [
        {
          "name": "points",
          "type": "uint256"
        },
        {
          "name": "transactionType",
          "type": "uint8"
        },
        {
          "name": "memberAddress",
          "type": "address"
        },
        {
          "name": "partnerAddress",
          "type": "address"
        }
      ],
      "payable": false,
      "stateMutability": "view",
      "type": "function"
    },
    {
      "constant": true,
      "inputs": [
        {
          "name": "",
          "type": "address"
        }
      ],
      "name": "partners",
      "outputs": [
        {
          "name": "partnerAddress",
          "type": "address"
        },
        {
          "name": "isRegistered",
          "type": "bool"
        }
      ],
      "payable": false,
      "stateMutability": "view",
      "type": "function"
    },
    {
      "constant": true,
      "inputs": [
        {
          "name": "",
          "type": "uint256"
        }
      ],
      "name": "partnersInfo",
      "outputs": [
        {
          "name": "partnerAddress",
          "type": "address"
        },
        {
          "name": "isRegistered",
          "type": "bool"
        }
      ],
      "payable": false,
      "stateMutability": "view",
      "type": "function"
    }
  ],
  "bytecode": "0x608060405234801561001057600080fd5b50610464806100206000396000f3fe608060405234801561001057600080fd5b506004361061004c5760003560e01c806308ae4b0c14610051578063674c7099146100e757806395c33652146101a4578063d5763aea14610233575b600080fd5b6100936004803603602081101561006757600080fd5b81019080803573ffffffffffffffffffffffffffffffffffffffff1690602001909291905050506102ac565b604051808473ffffffffffffffffffffffffffffffffffffffff1673ffffffffffffffffffffffffffffffffffffffff16815260200183815260200182151515158152602001935050505060405180910390f35b610113600480360360208110156100fd57600080fd5b8101908080359060200190929190505050610303565b6040518085815260200184600181111561012957fe5b60ff1681526020018373ffffffffffffffffffffffffffffffffffffffff1673ffffffffffffffffffffffffffffffffffffffff1681526020018273ffffffffffffffffffffffffffffffffffffffff1673ffffffffffffffffffffffffffffffffffffffff16815260200194505050505060405180910390f35b6101e6600480360360208110156101ba57600080fd5b81019080803573ffffffffffffffffffffffffffffffffffffffff16906020019092919050505061038d565b604051808373ffffffffffffffffffffffffffffffffffffffff1673ffffffffffffffffffffffffffffffffffffffff168152602001821515151581526020019250505060405180910390f35b61025f6004803603602081101561024957600080fd5b81019080803590602001909291905050506103de565b604051808373ffffffffffffffffffffffffffffffffffffffff1673ffffffffffffffffffffffffffffffffffffffff168152602001821515151581526020019250505060405180910390f35b60006020528060005260406000206000915090508060000160009054906101000a900473ffffffffffffffffffffffffffffffffffffffff16908060010154908060020160009054906101000a900460ff16905083565b6003818154811061031057fe5b90600052602060002090600302016000915090508060000154908060010160009054906101000a900460ff16908060010160019054906101000a900473ffffffffffffffffffffffffffffffffffffffff16908060020160009054906101000a900473ffffffffffffffffffffffffffffffffffffffff16905084565b60016020528060005260406000206000915090508060000160009054906101000a900473ffffffffffffffffffffffffffffffffffffffff16908060000160149054906101000a900460ff16905082565b600281815481106103eb57fe5b906000526020600020016000915090508060000160009054906101000a900473ffffffffffffffffffffffffffffffffffffffff16908060000160149054906101000a900460ff1690508256fea165627a7a72305820ce58b93f8631fc4900f9e0d5f124d272ffb4613e37671705d928f7dd66e6c0d50029",
  "source": "pragma solidity >=0.5.8 <0.6.0;\r\n\r\n/**\r\n * @title PointsTokenStorage\r\n * @dev This contract holds all the necessary state variables to carry out the storage of any contract.\r\n */\r\ncontract PointsTokenStorage {\r\n\r\n // model a member\r\n    struct Member {\r\n        address memberAddress;\r\n        uint points;\r\n        bool isRegistered;\r\n    }\r\n\r\n    // model a partner\r\n    struct Partner {\r\n        address partnerAddress;\r\n        bool isRegistered;\r\n    }\r\n\r\n    // model points transaction\r\n    enum TransactionType {\r\n        Earned,\r\n        Redeemed\r\n    }\r\n\r\n    struct PointsTransaction {\r\n        uint points;\r\n        TransactionType transactionType;\r\n        address memberAddress;\r\n        address partnerAddress;\r\n    }\r\n\r\n    //members and partners on the network mapped with their address\r\n    mapping(address => Member) public members;\r\n\r\n    mapping(address => Partner) public partners;\r\n\r\n    //public transactions and partners information\r\n    Partner[] public partnersInfo;\r\n\r\n    PointsTransaction[] public transactionsInfo;\r\n\r\n    // For future proposes\r\n    mapping(bytes32 => bool) internal boolStorage;\r\n\r\n    mapping(bytes32 => int256) internal intStorage;\r\n\r\n    mapping(bytes32 => bytes) internal bytesStorage;\r\n\r\n    mapping(bytes32 => uint256) internal uintStorage;\r\n\r\n    mapping(bytes32 => string) internal stringStorage;\r\n\r\n    mapping(bytes32 => address) internal addressStorage;\r\n}",
  "sourcePath": "/mnt/d/Documents/Projects/Synergy/Projects/synergy-loyalty-app/contracts/PointsTokenStorage.sol",
  "compiler": {
    "name": "solc",
    "version": "0.5.8+commit.23d335f2.Emscripten.clang"
  },
  "schemaVersion": "3.0.16",
  "updatedAt": "2019-10-01T20:12:16.803Z",
  "devdoc": {
    "details": "This contract holds all the necessary state variables to carry out the storage of any contract.\r",
    "methods": {},
    "title": "PointsTokenStorage\r"
  },
  "userdoc": {
    "methods": {}
  }
}