{
  "contractName": "PointsTokenStorageProxy",
  "abi": [
    {
      "constant": true,
      "inputs": [],
      "name": "proxyOwner",
      "outputs": [
        {
          "name": "",
          "type": "address"
        }
      ],
      "payable": false,
      "stateMutability": "view",
      "type": "function"
    },
    {
      "constant": true,
      "inputs": [
        {
          "name": "",
          "type": "address"
        }
      ],
      "name": "members",
      "outputs": [
        {
          "name": "memberAddress",
          "type": "address"
        },
        {
          "name": "points",
          "type": "uint256"
        },
        {
          "name": "isRegistered",
          "type": "bool"
        }
      ],
      "payable": false,
      "stateMutability": "view",
      "type": "function"
    },
    {
      "constant": true,
      "inputs": [],
      "name": "version",
      "outputs": [
        {
          "name": "",
          "type": "string"
        }
      ],
      "payable": false,
      "stateMutability": "view",
      "type": "function"
    },
    {
      "constant": false,
      "inputs": [
        {
          "name": "version",
          "type": "string"
        },
        {
          "name": "implementation",
          "type": "address"
        }
      ],
      "name": "upgradeTo",
      "outputs": [],
      "payable": false,
      "stateMutability": "nonpayable",
      "type": "function"
    },
    {
      "constant": true,
      "inputs": [],
      "name": "implementation",
      "outputs": [
        {
          "name": "",
          "type": "address"
        }
      ],
      "payable": false,
      "stateMutability": "view",
      "type": "function"
    },
    {
      "constant": true,
      "inputs": [
        {
          "name": "",
          "type": "uint256"
        }
      ],
      "name": "transactionsInfo",
      "outputs": [
        {
          "name": "points",
          "type": "uint256"
        },
        {
          "name": "transactionType",
          "type": "uint8"
        },
        {
          "name": "memberAddress",
          "type": "address"
        },
        {
          "name": "partnerAddress",
          "type": "address"
        }
      ],
      "payable": false,
      "stateMutability": "view",
      "type": "function"
    },
    {
      "constant": true,
      "inputs": [],
      "name": "upgradeabilityOwner",
      "outputs": [
        {
          "name": "",
          "type": "address"
        }
      ],
      "payable": false,
      "stateMutability": "view",
      "type": "function"
    },
    {
      "constant": false,
      "inputs": [
        {
          "name": "version",
          "type": "string"
        },
        {
          "name": "implementation",
          "type": "address"
        },
        {
          "name": "data",
          "type": "bytes"
        }
      ],
      "name": "upgradeToAndCall",
      "outputs": [],
      "payable": true,
      "stateMutability": "payable",
      "type": "function"
    },
    {
      "constant": true,
      "inputs": [
        {
          "name": "",
          "type": "address"
        }
      ],
      "name": "partners",
      "outputs": [
        {
          "name": "partnerAddress",
          "type": "address"
        },
        {
          "name": "isRegistered",
          "type": "bool"
        }
      ],
      "payable": false,
      "stateMutability": "view",
      "type": "function"
    },
    {
      "constant": true,
      "inputs": [
        {
          "name": "",
          "type": "uint256"
        }
      ],
      "name": "partnersInfo",
      "outputs": [
        {
          "name": "partnerAddress",
          "type": "address"
        },
        {
          "name": "isRegistered",
          "type": "bool"
        }
      ],
      "payable": false,
      "stateMutability": "view",
      "type": "function"
    },
    {
      "constant": false,
      "inputs": [
        {
          "name": "newOwner",
          "type": "address"
        }
      ],
      "name": "transferProxyOwnership",
      "outputs": [],
      "payable": false,
      "stateMutability": "nonpayable",
      "type": "function"
    },
    {
      "payable": true,
      "stateMutability": "payable",
      "type": "fallback"
    },
    {
      "anonymous": false,
      "inputs": [
        {
          "indexed": false,
          "name": "previousOwner",
          "type": "address"
        },
        {
          "indexed": false,
          "name": "newOwner",
          "type": "address"
        }
      ],
      "name": "ProxyOwnershipTransferred",
      "type": "event"
    },
    {
      "anonymous": false,
      "inputs": [
        {
          "indexed": false,
          "name": "version",
          "type": "string"
        },
        {
          "indexed": true,
          "name": "implementation",
          "type": "address"
        }
      ],
      "name": "Upgraded",
      "type": "event"
    }
  ],
  "bytecode": "0x60806040526100133361001860201b60201c565b61005c565b80600a60006101000a81548173ffffffffffffffffffffffffffffffffffffffff021916908373ffffffffffffffffffffffffffffffffffffffff16021790555050565b6111d88061006b6000396000f3fe60806040526004361061009c5760003560e01c8063674c709911610064578063674c70991461043b5780636fde820214610505578063958a41dd1461055c57806395c33652146106ce578063d5763aea1461076a578063f1739cae146107f05761009c565b8063025313a21461017257806308ae4b0c146101c957806354fd4d501461026c5780635a8b1a9f146102fc5780635c60da1b146103e4575b60006100a6610841565b9050600073ffffffffffffffffffffffffffffffffffffffff168173ffffffffffffffffffffffffffffffffffffffff16141561014b576040517f08c379a00000000000000000000000000000000000000000000000000000000081526004018080602001828103825260178152602001807f496d706c656d656e746174696f6e20697320656d70747900000000000000000081525060200191505060405180910390fd5b60405136600082376000803683855af43d806000843e816000811461016e578184f35b8184fd5b34801561017e57600080fd5b5061018761086b565b604051808273ffffffffffffffffffffffffffffffffffffffff1673ffffffffffffffffffffffffffffffffffffffff16815260200191505060405180910390f35b3480156101d557600080fd5b50610218600480360360208110156101ec57600080fd5b81019080803573ffffffffffffffffffffffffffffffffffffffff16906020019092919050505061087a565b604051808473ffffffffffffffffffffffffffffffffffffffff1673ffffffffffffffffffffffffffffffffffffffff16815260200183815260200182151515158152602001935050505060405180910390f35b34801561027857600080fd5b506102816108d1565b6040518080602001828103825283818151815260200191508051906020019080838360005b838110156102c15780820151818401526020810190506102a6565b50505050905090810190601f1680156102ee5780820380516001836020036101000a031916815260200191505b509250505060405180910390f35b34801561030857600080fd5b506103e26004803603604081101561031f57600080fd5b810190808035906020019064010000000081111561033c57600080fd5b82018360208201111561034e57600080fd5b8035906020019184600183028401116401000000008311171561037057600080fd5b91908080601f016020809104026020016040519081016040528093929190818152602001838380828437600081840152601f19601f820116905080830192505050505050509192919290803573ffffffffffffffffffffffffffffffffffffffff169060200190929190505050610973565b005b3480156103f057600080fd5b506103f9610841565b604051808273ffffffffffffffffffffffffffffffffffffffff1673ffffffffffffffffffffffffffffffffffffffff16815260200191505060405180910390f35b34801561044757600080fd5b506104746004803603602081101561045e57600080fd5b8101908080359060200190929190505050610a29565b6040518085815260200184600181111561048a57fe5b60ff1681526020018373ffffffffffffffffffffffffffffffffffffffff1673ffffffffffffffffffffffffffffffffffffffff1681526020018273ffffffffffffffffffffffffffffffffffffffff1673ffffffffffffffffffffffffffffffffffffffff16815260200194505050505060405180910390f35b34801561051157600080fd5b5061051a610ab3565b604051808273ffffffffffffffffffffffffffffffffffffffff1673ffffffffffffffffffffffffffffffffffffffff16815260200191505060405180910390f35b6106cc6004803603606081101561057257600080fd5b810190808035906020019064010000000081111561058f57600080fd5b8201836020820111156105a157600080fd5b803590602001918460018302840111640100000000831117156105c357600080fd5b91908080601f016020809104026020016040519081016040528093929190818152602001838380828437600081840152601f19601f820116905080830192505050505050509192919290803573ffffffffffffffffffffffffffffffffffffffff1690602001909291908035906020019064010000000081111561064657600080fd5b82018360208201111561065857600080fd5b8035906020019184600183028401116401000000008311171561067a57600080fd5b91908080601f016020809104026020016040519081016040528093929190818152602001838380828437600081840152601f19601f820116905080830192505050505050509192919290505050610add565b005b3480156106da57600080fd5b5061071d600480360360208110156106f157600080fd5b81019080803573ffffffffffffffffffffffffffffffffffffffff169060200190929190505050610c50565b604051808373ffffffffffffffffffffffffffffffffffffffff1673ffffffffffffffffffffffffffffffffffffffff168152602001821515151581526020019250505060405180910390f35b34801561077657600080fd5b506107a36004803603602081101561078d57600080fd5b8101908080359060200190929190505050610ca1565b604051808373ffffffffffffffffffffffffffffffffffffffff1673ffffffffffffffffffffffffffffffffffffffff168152602001821515151581526020019250505060405180910390f35b3480156107fc57600080fd5b5061083f6004803603602081101561081357600080fd5b81019080803573ffffffffffffffffffffffffffffffffffffffff169060200190929190505050610cfb565b005b6000600c60009054906101000a900473ffffffffffffffffffffffffffffffffffffffff16905090565b6000610875610ab3565b905090565b60006020528060005260406000206000915090508060000160009054906101000a900473ffffffffffffffffffffffffffffffffffffffff16908060010154908060020160009054906101000a900460ff16905083565b6060600b8054600181600116156101000203166002900480601f0160208091040260200160405190810160405280929190818152602001828054600181600116156101000203166002900480156109695780601f1061093e57610100808354040283529160200191610969565b820191906000526020600020905b81548152906001019060200180831161094c57829003601f168201915b5050505050905090565b61097b61086b565b73ffffffffffffffffffffffffffffffffffffffff163373ffffffffffffffffffffffffffffffffffffffff1614610a1b576040517f08c379a00000000000000000000000000000000000000000000000000000000081526004018080602001828103825260148152602001807f43616c6c6564206f6e6c79206279206f776e657200000000000000000000000081525060200191505060405180910390fd5b610a258282610ef0565b5050565b60038181548110610a3657fe5b90600052602060002090600302016000915090508060000154908060010160009054906101000a900460ff16908060010160019054906101000a900473ffffffffffffffffffffffffffffffffffffffff16908060020160009054906101000a900473ffffffffffffffffffffffffffffffffffffffff16905084565b6000600a60009054906101000a900473ffffffffffffffffffffffffffffffffffffffff16905090565b610ae561086b565b73ffffffffffffffffffffffffffffffffffffffff163373ffffffffffffffffffffffffffffffffffffffff1614610b85576040517f08c379a00000000000000000000000000000000000000000000000000000000081526004018080602001828103825260148152602001807f43616c6c6564206f6e6c79206279206f776e657200000000000000000000000081525060200191505060405180910390fd5b610b8f8383610973565b60003090508073ffffffffffffffffffffffffffffffffffffffff1634836040518082805190602001908083835b60208310610be05780518252602082019150602081019050602083039250610bbd565b6001836020036101000a03801982511681845116808217855250505050505090500191505060006040518083038185875af1925050503d8060008114610c42576040519150601f19603f3d011682016040523d82523d6000602084013e610c47565b606091505b50505050505050565b60016020528060005260406000206000915090508060000160009054906101000a900473ffffffffffffffffffffffffffffffffffffffff16908060000160149054906101000a900460ff16905082565b60028181548110610cae57fe5b906000526020600020016000915090508060000160009054906101000a900473ffffffffffffffffffffffffffffffffffffffff16908060000160149054906101000a900460ff16905082565b610d0361086b565b73ffffffffffffffffffffffffffffffffffffffff163373ffffffffffffffffffffffffffffffffffffffff1614610da3576040517f08c379a00000000000000000000000000000000000000000000000000000000081526004018080602001828103825260148152602001807f43616c6c6564206f6e6c79206279206f776e657200000000000000000000000081525060200191505060405180910390fd5b600073ffffffffffffffffffffffffffffffffffffffff168173ffffffffffffffffffffffffffffffffffffffff161415610e46576040517f08c379a000000000000000000000000000000000000000000000000000000000815260040180806020018281038252601f8152602001807f4e756c6c206f776e65722076616c7565206973206e6f7420616c6c6f7765640081525060200191505060405180910390fd5b7f5a3e66efaa1e445ebd894728a69d6959842ea1e97bd79b892797106e270efcd9610e6f61086b565b82604051808373ffffffffffffffffffffffffffffffffffffffff1673ffffffffffffffffffffffffffffffffffffffff1681526020018273ffffffffffffffffffffffffffffffffffffffff1673ffffffffffffffffffffffffffffffffffffffff1681526020019250505060405180910390a1610eed816110c3565b50565b8073ffffffffffffffffffffffffffffffffffffffff16600c60009054906101000a900473ffffffffffffffffffffffffffffffffffffffff1673ffffffffffffffffffffffffffffffffffffffff161415610fb4576040517f08c379a00000000000000000000000000000000000000000000000000000000081526004018080602001828103825260208152602001807f496d706c656d656e746174696f6e2063616e2774206265207468652073616d6581525060200191505060405180910390fd5b81600b9080519060200190610fca929190611107565b5080600c60006101000a81548173ffffffffffffffffffffffffffffffffffffffff021916908373ffffffffffffffffffffffffffffffffffffffff1602179055508073ffffffffffffffffffffffffffffffffffffffff167f8e05e0e35ff592971ca8b477d4285a33a61ded208d644042667b78693a472f5e836040518080602001828103825283818151815260200191508051906020019080838360005b8381101561108557808201518184015260208101905061106a565b50505050905090810190601f1680156110b25780820380516001836020036101000a031916815260200191505b509250505060405180910390a25050565b80600a60006101000a81548173ffffffffffffffffffffffffffffffffffffffff021916908373ffffffffffffffffffffffffffffffffffffffff16021790555050565b828054600181600116156101000203166002900490600052602060002090601f016020900481019282601f1061114857805160ff1916838001178555611176565b82800160010185558215611176579182015b8281111561117557825182559160200191906001019061115a565b5b5090506111839190611187565b5090565b6111a991905b808211156111a557600081600090555060010161118d565b5090565b9056fea165627a7a72305820db44c8406fb39c7290a86b944cb5fdf303042e36b7b2ffd861412668f9e3c81a0029",
  "source": "pragma solidity >=0.5.8 <0.6.0;\r\n\r\nimport \"./PointsTokenStorage.sol\";\r\nimport \"./OwnedUpgradeabilityProxy.sol\";\r\n\r\n\r\n/**\r\n * @title EternalStorageProxy\r\n * @dev This proxy holds the storage of the token contract and delegates every call to the current implementation set.\r\n * Besides, it allows to upgrade the token's behaviour towards further implementations, and provides basic\r\n * authorization control functionalities\r\n */\r\ncontract PointsTokenStorageProxy is PointsTokenStorage, OwnedUpgradeabilityProxy {}",
  "sourcePath": "/mnt/d/Documents/Projects/Synergy/Projects/synergy-loyalty-app/contracts/PointsTokenStorageProxy.sol",
  "compiler": {
    "name": "solc",
    "version": "0.5.8+commit.23d335f2.Emscripten.clang"
  },
  "schemaVersion": "3.0.16",
  "updatedAt": "2019-10-01T20:12:18.770Z",
  "devdoc": {
    "details": "This proxy holds the storage of the token contract and delegates every call to the current implementation set.\r Besides, it allows to upgrade the token's behaviour towards further implementations, and provides basic\r authorization control functionalities\r",
    "methods": {
      "implementation()": {
        "details": "Tells the address of the current implementation\r",
        "return": "address of the current implementation\r"
      },
      "proxyOwner()": {
        "details": "Tells the address of the proxy owner\r",
        "return": "the address of the proxy owner\r"
      },
      "transferProxyOwnership(address)": {
        "details": "Allows the current owner to transfer control of the contract to a newOwner.\r",
        "params": {
          "newOwner": "The address to transfer ownership to.\r"
        }
      },
      "upgradeTo(string,address)": {
        "details": "Allows the upgradeability owner to upgrade the current version of the proxy.\r",
        "params": {
          "implementation": "representing the address of the new implementation to be set.\r",
          "version": "representing the version name of the new implementation to be set.\r"
        }
      },
      "upgradeToAndCall(string,address,bytes)": {
        "details": "Allows the upgradeability owner to upgrade the current version of the proxy and call the new implementation\r to initialize whatever is needed through a low level call.\r",
        "params": {
          "data": "represents the msg.data to bet sent in the low level call. This parameter may include the function\r signature of the implementation to be called with the needed payload\r",
          "implementation": "representing the address of the new implementation to be set.\r",
          "version": "representing the version name of the new implementation to be set.\r"
        }
      },
      "upgradeabilityOwner()": {
        "details": "Tells the address of the owner\r",
        "return": "the address of the owner\r"
      },
      "version()": {
        "details": "Tells the version name of the current implementation\r",
        "return": "string representing the name of the current version\r"
      }
    },
    "title": "EternalStorageProxy\r"
  },
  "userdoc": {
    "methods": {}
  }
}