{
  "contractName": "PointsTokenStorage",
  "abi": [
    {
      "constant": true,
      "inputs": [
        {
          "name": "",
          "type": "address"
        }
      ],
      "name": "members",
      "outputs": [
        {
          "name": "memberAddress",
          "type": "address"
        },
        {
          "name": "points",
          "type": "uint256"
        },
        {
          "name": "isRegistered",
          "type": "bool"
        }
      ],
      "payable": false,
      "stateMutability": "view",
      "type": "function"
    },
    {
      "constant": true,
      "inputs": [
        {
          "name": "",
          "type": "uint256"
        }
      ],
      "name": "transactionsInfo",
      "outputs": [
        {
          "name": "points",
          "type": "uint256"
        },
        {
          "name": "transactionType",
          "type": "uint8"
        },
        {
          "name": "memberAddress",
          "type": "address"
        },
        {
          "name": "partnerAddress",
          "type": "address"
        }
      ],
      "payable": false,
      "stateMutability": "view",
      "type": "function"
    },
    {
      "constant": true,
      "inputs": [
        {
          "name": "",
          "type": "address"
        }
      ],
      "name": "partners",
      "outputs": [
        {
          "name": "partnerAddress",
          "type": "address"
        },
        {
          "name": "isRegistered",
          "type": "bool"
        }
      ],
      "payable": false,
      "stateMutability": "view",
      "type": "function"
    },
    {
      "constant": true,
      "inputs": [
        {
          "name": "",
          "type": "uint256"
        }
      ],
      "name": "partnersInfo",
      "outputs": [
        {
          "name": "partnerAddress",
          "type": "address"
        },
        {
          "name": "isRegistered",
          "type": "bool"
        }
      ],
      "payable": false,
      "stateMutability": "view",
      "type": "function"
    },
    {
      "constant": true,
      "inputs": [],
      "name": "administrator",
      "outputs": [
        {
          "name": "",
          "type": "address"
        }
      ],
      "payable": false,
      "stateMutability": "view",
      "type": "function"
    }
  ],
  "bytecode": "0x608060405234801561001057600080fd5b506104df806100206000396000f3fe608060405234801561001057600080fd5b50600436106100575760003560e01c806308ae4b0c1461005c578063674c7099146100f257806395c33652146101af578063d5763aea1461023e578063f53d0a8e146102b7575b600080fd5b61009e6004803603602081101561007257600080fd5b81019080803573ffffffffffffffffffffffffffffffffffffffff169060200190929190505050610301565b604051808473ffffffffffffffffffffffffffffffffffffffff1673ffffffffffffffffffffffffffffffffffffffff16815260200183815260200182151515158152602001935050505060405180910390f35b61011e6004803603602081101561010857600080fd5b8101908080359060200190929190505050610358565b6040518085815260200184600181111561013457fe5b60ff1681526020018373ffffffffffffffffffffffffffffffffffffffff1673ffffffffffffffffffffffffffffffffffffffff1681526020018273ffffffffffffffffffffffffffffffffffffffff1673ffffffffffffffffffffffffffffffffffffffff16815260200194505050505060405180910390f35b6101f1600480360360208110156101c557600080fd5b81019080803573ffffffffffffffffffffffffffffffffffffffff1690602001909291905050506103e2565b604051808373ffffffffffffffffffffffffffffffffffffffff1673ffffffffffffffffffffffffffffffffffffffff168152602001821515151581526020019250505060405180910390f35b61026a6004803603602081101561025457600080fd5b8101908080359060200190929190505050610433565b604051808373ffffffffffffffffffffffffffffffffffffffff1673ffffffffffffffffffffffffffffffffffffffff168152602001821515151581526020019250505060405180910390f35b6102bf61048d565b604051808273ffffffffffffffffffffffffffffffffffffffff1673ffffffffffffffffffffffffffffffffffffffff16815260200191505060405180910390f35b60006020528060005260406000206000915090508060000160009054906101000a900473ffffffffffffffffffffffffffffffffffffffff16908060010154908060020160009054906101000a900460ff16905083565b6003818154811061036557fe5b90600052602060002090600302016000915090508060000154908060010160009054906101000a900460ff16908060010160019054906101000a900473ffffffffffffffffffffffffffffffffffffffff16908060020160009054906101000a900473ffffffffffffffffffffffffffffffffffffffff16905084565b60016020528060005260406000206000915090508060000160009054906101000a900473ffffffffffffffffffffffffffffffffffffffff16908060000160149054906101000a900460ff16905082565b6002818154811061044057fe5b906000526020600020016000915090508060000160009054906101000a900473ffffffffffffffffffffffffffffffffffffffff16908060000160149054906101000a900460ff16905082565b600460009054906101000a900473ffffffffffffffffffffffffffffffffffffffff168156fea165627a7a72305820d2592f62794b9bfbe976e2957a99a1119972909a0534eee64cb2e554e0494d0f0029",
  "source": "pragma solidity >=0.5.8 <0.6.0;\r\n\r\n/**\r\n * @title PointsTokenStorage\r\n * @dev This contract holds all the necessary state variables to carry out the storage of any contract.\r\n */\r\ncontract PointsTokenStorage {\r\n\r\n // model a member\r\n    struct Member {\r\n        address memberAddress;\r\n        uint points;\r\n        bool isRegistered;\r\n    }\r\n\r\n    // model a partner\r\n    struct Partner {\r\n        address partnerAddress;\r\n        bool isRegistered;\r\n    }\r\n\r\n    // model points transaction\r\n    enum TransactionType {\r\n        Earned,\r\n        Redeemed\r\n    }\r\n\r\n    struct PointsTransaction {\r\n        uint points;\r\n        TransactionType transactionType;\r\n        address memberAddress;\r\n        address partnerAddress;\r\n    }\r\n\r\n    //members and partners on the network mapped with their address\r\n    mapping(address => Member) public members;\r\n\r\n    mapping(address => Partner) public partners;\r\n\r\n    //public transactions and partners information\r\n    Partner[] public partnersInfo;\r\n\r\n    PointsTransaction[] public transactionsInfo;\r\n\r\n    address public administrator;\r\n\r\n    // For future proposes\r\n    mapping(bytes32 => bool) internal boolStorage;\r\n\r\n    mapping(bytes32 => int256) internal intStorage;\r\n\r\n    mapping(bytes32 => bytes) internal bytesStorage;\r\n\r\n    mapping(bytes32 => uint256) internal uintStorage;\r\n\r\n    mapping(bytes32 => string) internal stringStorage;\r\n\r\n    mapping(bytes32 => address) internal addressStorage;\r\n}",
  "sourcePath": "/mnt/d/Documents/Projects/Synergy/Projects/synergy-loyalty-app/contracts/PointsTokenStorage.sol",
  "compiler": {
    "name": "solc",
    "version": "0.5.8+commit.23d335f2.Emscripten.clang"
  },
  "schemaVersion": "3.0.16",
  "updatedAt": "2019-09-29T20:35:42.407Z",
  "devdoc": {
    "details": "This contract holds all the necessary state variables to carry out the storage of any contract.\r",
    "methods": {},
    "title": "PointsTokenStorage\r"
  },
  "userdoc": {
    "methods": {}
  }
}