{
  "contractName": "UpgradeabilityStorage",
  "abi": [
    {
      "constant": true,
      "inputs": [],
      "name": "version",
      "outputs": [
        {
          "name": "",
          "type": "string"
        }
      ],
      "payable": false,
      "stateMutability": "view",
      "type": "function"
    },
    {
      "constant": true,
      "inputs": [],
      "name": "implementation",
      "outputs": [
        {
          "name": "",
          "type": "address"
        }
      ],
      "payable": false,
      "stateMutability": "view",
      "type": "function"
    }
  ],
  "bytecode": "0x608060405234801561001057600080fd5b50610200806100206000396000f3fe608060405234801561001057600080fd5b50600436106100365760003560e01c806354fd4d501461003b5780635c60da1b146100be575b600080fd5b610043610108565b6040518080602001828103825283818151815260200191508051906020019080838360005b83811015610083578082015181840152602081019050610068565b50505050905090810190601f1680156100b05780820380516001836020036101000a031916815260200191505b509250505060405180910390f35b6100c66101aa565b604051808273ffffffffffffffffffffffffffffffffffffffff1673ffffffffffffffffffffffffffffffffffffffff16815260200191505060405180910390f35b606060008054600181600116156101000203166002900480601f0160208091040260200160405190810160405280929190818152602001828054600181600116156101000203166002900480156101a05780601f10610175576101008083540402835291602001916101a0565b820191906000526020600020905b81548152906001019060200180831161018357829003601f168201915b5050505050905090565b6000600160009054906101000a900473ffffffffffffffffffffffffffffffffffffffff1690509056fea165627a7a7230582086ff64818dc6c9689b6138aa6adf1f02f811a7a912d8dd91b9a798192e3c6f890029",
  "source": "pragma solidity >=0.5.8 <0.6.0;\r\n\r\n/**\r\n * @title UpgradeabilityStorage\r\n * @dev This contract holds all the necessary state variables to support the upgrade functionality\r\n */\r\ncontract UpgradeabilityStorage {\r\n  // Version name of the current implementation\r\n  string internal _version;\r\n\r\n  // Address of the current implementation\r\n  address internal _implementation;\r\n\r\n  /**\r\n  * @dev Tells the version name of the current implementation\r\n  * @return string representing the name of the current version\r\n  */\r\n  function version() public view returns (string memory) {\r\n    return _version;\r\n  }\r\n\r\n  /**\r\n  * @dev Tells the address of the current implementation\r\n  * @return address of the current implementation\r\n  */\r\n  function implementation() public view returns (address) {\r\n    return _implementation;\r\n  }\r\n}",
  "sourcePath": "/mnt/d/Documents/Projects/Synergy/Projects/synergy-loyalty-app/contracts/UpgradeabilityStorage.sol",
  "compiler": {
    "name": "solc",
    "version": "0.5.8+commit.23d335f2.Emscripten.clang"
  },
  "schemaVersion": "3.0.16",
  "updatedAt": "2019-09-29T00:01:31.943Z",
  "devdoc": {
    "details": "This contract holds all the necessary state variables to support the upgrade functionality\r",
    "methods": {
      "implementation()": {
        "details": "Tells the address of the current implementation\r",
        "return": "address of the current implementation\r"
      },
      "version()": {
        "details": "Tells the version name of the current implementation\r",
        "return": "string representing the name of the current version\r"
      }
    },
    "title": "UpgradeabilityStorage\r"
  },
  "userdoc": {
    "methods": {}
  }
}