{
  "contractName": "UpgradeabilityProxy",
  "abi": [
    {
      "constant": true,
      "inputs": [],
      "name": "version",
      "outputs": [
        {
          "name": "",
          "type": "string"
        }
      ],
      "payable": false,
      "stateMutability": "view",
      "type": "function"
    },
    {
      "constant": true,
      "inputs": [],
      "name": "implementation",
      "outputs": [
        {
          "name": "",
          "type": "address"
        }
      ],
      "payable": false,
      "stateMutability": "view",
      "type": "function"
    },
    {
      "payable": true,
      "stateMutability": "payable",
      "type": "fallback"
    },
    {
      "anonymous": false,
      "inputs": [
        {
          "indexed": false,
          "name": "version",
          "type": "string"
        },
        {
          "indexed": true,
          "name": "implementation",
          "type": "address"
        }
      ],
      "name": "Upgraded",
      "type": "event"
    }
  ],
  "bytecode": "0x608060405234801561001057600080fd5b506102de806100206000396000f3fe6080604052600436106100295760003560e01c806354fd4d50146100ff5780635c60da1b1461018f575b60006100336101e6565b9050600073ffffffffffffffffffffffffffffffffffffffff168173ffffffffffffffffffffffffffffffffffffffff1614156100d8576040517f08c379a00000000000000000000000000000000000000000000000000000000081526004018080602001828103825260178152602001807f496d706c656d656e746174696f6e20697320656d70747900000000000000000081525060200191505060405180910390fd5b60405136600082376000803683855af43d806000843e81600081146100fb578184f35b8184fd5b34801561010b57600080fd5b50610114610210565b6040518080602001828103825283818151815260200191508051906020019080838360005b83811015610154578082015181840152602081019050610139565b50505050905090810190601f1680156101815780820380516001836020036101000a031916815260200191505b509250505060405180910390f35b34801561019b57600080fd5b506101a46101e6565b604051808273ffffffffffffffffffffffffffffffffffffffff1673ffffffffffffffffffffffffffffffffffffffff16815260200191505060405180910390f35b6000600160009054906101000a900473ffffffffffffffffffffffffffffffffffffffff16905090565b606060008054600181600116156101000203166002900480601f0160208091040260200160405190810160405280929190818152602001828054600181600116156101000203166002900480156102a85780601f1061027d576101008083540402835291602001916102a8565b820191906000526020600020905b81548152906001019060200180831161028b57829003601f168201915b505050505090509056fea165627a7a7230582016bae76f2ed5e2d2d8dd8f5dad2d1b818c5cd76c8f224baaca96c7693b3bae930029",
  "source": "pragma solidity >=0.5.8 <0.6.0;\r\n\r\nimport './Proxy.sol';\r\nimport './UpgradeabilityStorage.sol';\r\n\r\n/**\r\n * @title UpgradeabilityProxy\r\n * @dev This contract represents a proxy where the implementation address to which it will delegate can be upgraded\r\n */\r\ncontract UpgradeabilityProxy is Proxy, UpgradeabilityStorage {\r\n  /**\r\n  * @dev This event will be emitted every time the implementation gets upgraded\r\n  * @param version representing the version name of the upgraded implementation\r\n  * @param implementation representing the address of the upgraded implementation\r\n  */\r\n  event Upgraded(string version, address indexed implementation);\r\n\r\n  /**\r\n  * @dev Upgrades the implementation address\r\n  * @param version representing the version name of the new implementation to be set\r\n  * @param implementation representing the address of the new implementation to be set\r\n  */\r\n  function _upgradeTo(string memory version, address implementation) internal {\r\n    require(_implementation != implementation, \"Implementation can't be the same\");\r\n    _version = version;\r\n    _implementation = implementation;\r\n    emit Upgraded(version, implementation);\r\n  }\r\n}",
  "sourcePath": "/mnt/d/Documents/Projects/Synergy/Projects/synergy-loyalty-app/contracts/UpgradeabilityProxy.sol",
  "compiler": {
    "name": "solc",
    "version": "0.5.8+commit.23d335f2.Emscripten.clang"
  },
  "schemaVersion": "3.0.16",
  "updatedAt": "2019-09-29T00:01:31.939Z",
  "devdoc": {
    "details": "This contract represents a proxy where the implementation address to which it will delegate can be upgraded\r",
    "methods": {
      "implementation()": {
        "details": "Tells the address of the current implementation\r",
        "return": "address of the current implementation\r"
      },
      "version()": {
        "details": "Tells the version name of the current implementation\r",
        "return": "string representing the name of the current version\r"
      }
    },
    "title": "UpgradeabilityProxy\r"
  },
  "userdoc": {
    "methods": {}
  }
}