{
  "contractName": "UpgradeabilityOwnerStorage",
  "abi": [
    {
      "constant": true,
      "inputs": [],
      "name": "upgradeabilityOwner",
      "outputs": [
        {
          "name": "",
          "type": "address"
        }
      ],
      "payable": false,
      "stateMutability": "view",
      "type": "function"
    }
  ],
  "bytecode": "0x608060405234801561001057600080fd5b5060ca8061001f6000396000f3fe6080604052348015600f57600080fd5b506004361060285760003560e01c80636fde820214602d575b600080fd5b60336075565b604051808273ffffffffffffffffffffffffffffffffffffffff1673ffffffffffffffffffffffffffffffffffffffff16815260200191505060405180910390f35b60008060009054906101000a900473ffffffffffffffffffffffffffffffffffffffff1690509056fea165627a7a72305820979e8f15790c9d64cfc53e15f5891f21f75c8078f1da01412885df6c619815510029",
  "source": "pragma solidity >=0.5.8 <0.6.0;\r\n\r\n\r\n/**\r\n * @title UpgradeabilityOwnerStorage\r\n * @dev This contract keeps track of the upgradeability owner\r\n */\r\ncontract UpgradeabilityOwnerStorage {\r\n  // Owner of the contract\r\n  address private _upgradeabilityOwner;\r\n\r\n  /**\r\n   * @dev Tells the address of the owner\r\n   * @return the address of the owner\r\n   */\r\n  function upgradeabilityOwner() public view returns (address) {\r\n    return _upgradeabilityOwner;\r\n  }\r\n\r\n  /**\r\n   * @dev Sets the address of the owner\r\n   */\r\n  function setUpgradeabilityOwner(address newUpgradeabilityOwner) internal {\r\n    _upgradeabilityOwner = newUpgradeabilityOwner;\r\n  }\r\n}",
  "sourcePath": "/mnt/d/Documents/Projects/Synergy/Projects/synergy-loyalty-app/contracts/UpgradeabilityOwnerStorage.sol",
  "compiler": {
    "name": "solc",
    "version": "0.5.8+commit.23d335f2.Emscripten.clang"
  },
  "schemaVersion": "3.0.16",
  "updatedAt": "2019-09-29T00:01:31.934Z",
  "devdoc": {
    "details": "This contract keeps track of the upgradeability owner\r",
    "methods": {
      "upgradeabilityOwner()": {
        "details": "Tells the address of the owner\r",
        "return": "the address of the owner\r"
      }
    },
    "title": "UpgradeabilityOwnerStorage\r"
  },
  "userdoc": {
    "methods": {}
  }
}